:020000040800F2
:1000000000000320711100085D0B00085F0B000861
:10001000610B0008630B0008650B0008000000007E
:10002000000000000000000000000000670B000856
:10003000690B0008000000006B0B00086D0B000846
:10004000C1110008C1110008C1110008C111000848
:10005000C1110008C1110008C1110008C111000838
:10006000C1110008C1110008C1110008C111000828
:10007000C1110008C1110008C1110008C111000818
:10008000710B0008C1110008C1110008C11100085E
:10009000C1110008C1110008C1110008C1110008F8
:1000A000C1110008C1110008C1110008C1110008E8
:1000B000C1110008C1110008C1110008C1110008D8
:1000C000C1110008C1110008C1110008C1110008C8
:1000D000C1110008AD0B0008C1110008B10B0008E8
:1000E000C1110008C1110008C1110008C1110008A8
:1000F000C1110008C1110008C1110008C111000898
:10010000C1110008C1110008C1110008C111000887
:10011000C1110008C1110008D50B0008C111000869
:10012000C1110008C1110008D90B0008C111000855
:10013000C1110008C1110008C1110008C111000857
:10014000C1110008C1110008C1110008C111000847
:10015000C1110008C1110008C1110008C111000837
:10016000C1110008C1110008C1110008C111000827
:10017000C1110008C1110008C111000800000000F1
:10018000C1110008C1110008C1110008C111000807
:10019000C1110008C1110008C1110008C1110008F7
:0C01A000C1110008C1110008C1110008C5
:1001AC0053B94AB9002908BF00281CBF4FF0FF31D2
:1001BC004FF0FF3000F00CB8ADF1080C6DE904CE37
:1001CC0001F01EF8DDF804E0DDE9022304B070470D
:1001DC00704700BF0348044B834202D0034B03B16A
:1001EC0018477047040000200400002000000000A5
:1001FC000548064B1B1AD90F01EBA301491002D07D
:10020C00034B03B118477047040000200400002082
:10021C000000000010B5064C237843B9FFF7DAFF55
:10022C00044B13B10448AFF300800123237010BDBD
:10023C0004000020000000000415000808B5054B60
:10024C001BB105490548AFF30080BDE80840FFF736
:10025C00CFBF00BF000000000800002004150008FC
:10026C0000B500F00700C0F1070CBCF1040F28BF6B
:10027C004FF0040C031D062B0FD9C31E4FF0FF3E8D
:10028C000EFA0CF021EA000199400EFA03FE22EA64
:10029C000E0241EA02005DF804FB0023EEE70000C9
:1002AC0010B5384A136823F00F0343F003031360AF
:1002BC00344B1B6803F00F03032BF9D1324A13683C
:1002CC0023F4404343F480431360136823F48033D6
:1002DC00136002F5E432136823F0F80343F0800353
:1002EC001360136843F001031360284B1B6813F071
:1002FC00020FFAD0254A5168254B0B4043F4F053BA
:10030C0043F008035360536823F44033536013687D
:10031C0043F0807313601D4B1B6813F0007FFAD001
:10032C00194B5B6813F4804FFAD0184B9A6822F083
:10033C00F0029A609A6822F4E05242F4A0529A6059
:10034C009A6822F4604242F400429A609A6822F061
:10035C00030242F002029A600C4B9B6803F00C0300
:10036C00082BF9D10B4C204600F0A4FD204600F0E0
:10037C00B1FD064AD2F88C3023F08073C2F88C3071
:10038C0010BD00BF003C024000700040003802402D
:10039C000080BFFF000E27070C4A136C43F00103CB
:1003AC0013640B4A02F1140353E8003F43F040037B
:1003BC00143242E800310029F3D1054B1B6813F0CD
:1003CC00400FFAD0024B31225A6070470064024051
:1003DC0000100140084A136C23F001031364074A10
:1003EC0002F1140353E8003F23F04003143242E8B7
:1003FC0000310029F3D17047006402400010014025
:10040C000A4AD2F8883043F00103C2F88830084B0E
:10041C001A6842F480521A6006490A6842F00102D6
:10042C000A601A6842F001021A60704700600240CC
:10043C0000740040000401400B4B1A6822F48052F7
:10044C001A600A49D1F8882022F00102C1F88820EC
:10045C00A1F5AE310A6822F001020A601A6822F096
:10046C0001021A60704700BF007400400060024037
:10047C0008B5054B1B7803B108BD034B01221A705C
:10048C00FFF78AFFF8E700BF2100002008B5002322
:10049C00044A1370044A1370FFF79CFFFFF7CCFF5C
:1004AC0008BD00BF210000202000002000B583B053
:1004BC00214B5A6C42F480425A645A6C02F48042CA
:1004CC000192019A1A6C42F080521A641B6C03F070
:1004DC0080530093009B194CE26822F4E0621204F2
:1004EC00120C174B1343E360E06800220F21C0F39A
:1004FC000220FFF7B5FE0301DBB284F82330FFF7CF
:10050C00CFFE00F067F800F06FF900F001FA00F090
:10051C0099F800F0A7FA00F0A3F901E0FFF7A8FFA3
:10052C00084B1B78012BF9D0032BF9D1FFF7AEFF49
:10053C00044B00221A70F3E70038024000ED00E093
:10054C000003FA052200002007E00E4B1B6813F095
:10055C00800FFAD001300B4B5A600278002AF4D18C
:10056C00084B1B6813F0800FFAD0064B0A225A6016
:10057C00044B1B6813F0800FFAD0024B0D225A600B
:10058C00704700BF0048004008B53038032806D833
:10059C00DFE800F002060D110A48FFF7D5FF08BD91
:1005AC00094B01221A700948FFF7CEFFF7E7064BFB
:1005BC0002221A70F3E7044B03221A700448FFF767
:1005CC00C3FFECE71C1500082200002024150008CE
:1005DC002C15000882B00A4B1A6B42F001021A6308
:1005EC001A6B02F001020192019A1A6B42F002029C
:1005FC001A631B6B03F002030093009B02B070475D
:10060C000038024000B500F00700C0F1070CBCF147
:10061C00040F28BF4FF0040C031D062B0FD9C31E6B
:10062C004FF0FF3E0EFA0CF021EA000199400EFA51
:10063C0003FE22EA0E0241EA02005DF804FB0023ED
:10064C00EEE7000030B589B002A9002502954D6097
:10065C008D60CD600D614D614B4B1A6C42F00052B8
:10066C001A641A6C02F000520192019A1A6B42F051
:10067C0001021A631B6B03F001030093009B102310
:10068C00029303230393414800F059FB404CD4F8E8
:10069C00883043F06063C4F88830D4F8883023F095
:1006AC00C00343F04003C4F88830D4F8883023F4F6
:1006BC004033C4F88830D4F8883023F4907343F472
:1006CC008073C4F88830D4F8883023F40073C4F8ED
:1006DC008830D4F8883043F48063C4F88830D4F878
:1006EC00883023F4C05343F40063C4F88830D4F842
:1006FC00883023F4C04343F40053C4F88830D4F852
:10070C009C3023F00403C4F89C30224BD8682A4652
:10071C002946C0F30220FFF775FF0001C0B21E4B43
:10072C0083F836034FF480025A601C4A136843F076
:10073C0004031360136823F0380343F008031360B9
:10074C00A2F58062D2F8103423F0FF03C2F8103403
:10075C00134BC4F89430134BC4F89030D4F88C304D
:10076C006FF30F0343F40053C4F88C30D4F8883083
:10077C0043F01003C4F88830D4F8883043F00803F1
:10078C00C4F8883009B030BD003802400000024087
:10079C000060024000ED00E000E100E00074004069
:1007AC00240000201074004000B500F00700C0F1D8
:1007BC00070CBCF1040F28BF4FF0040C031D062BD3
:1007CC000FD9C31E4FF0FF3E0EFA0CF021EA0001C8
:1007DC0099400EFA03FE22EA0E0241EA02005DF88D
:1007EC0004FB0023EEE7000030B583B0194B1A6B05
:1007FC0042F480021A631A6B02F480020192019A8D
:10080C001A6B42F400121A631B6B03F4001300936F
:10081C00009B114DE86800221146C0F30220FFF73F
:10082C00C3FF0001C0B20D4C84F810034FF48033A9
:10083C002360E86800221146C0F30220FFF7B4FFE2
:10084C000001C0B284F83A034FF08063636003B0D8
:10085C0030BD00BF0038024000ED00E000E100E0D8
:10086C0010B586B001A9002301934B608B60CB605F
:10087C000B61154B5A6C42F002025A645B6C03F02C
:10088C0002030093009B0323ADF8043040F2A7232E
:10089C0003930E4C204600F001FC236823F08003E8
:1008AC002360A36823F4804323F00703A3606368E9
:1008BC0023F0700343F020036360A36823F08003EC
:1008CC00A36006B010BD00BF003802400004014018
:1008DC0000B500F00700C0F1070CBCF1040F28BFF5
:1008EC004FF0040C031D062B0FD9C31E4FF0FF3E17
:1008FC000EFA0CF021EA000199400EFA03FE22EAEE
:10090C000E0241EA02005DF804FB0023EEE7000052
:10091C0070B590B009AE002509957560B560F560AD
:10092C0035617561B56103A903954D608D60CD602E
:10093C000D614D61444B5A6C42F010025A645A6C72
:10094C0002F010020292029A1A6B42F001021A6330
:10095C001B6B03F001030193019B4FF4C0630393E2
:10096C00022304930323059307230893374800F0CD
:10097C00E6F9374C236C23F0606343F00063236487
:10098C00236C23F0C0032364236C23F440332364CF
:10099C00236C23F4907343F480732364236C23F44B
:1009AC0000732364236C43F480632364236C23F46B
:1009BC00C05343F400632364236C23F4C04343F417
:1009CC0000532364636D23F004036365214BD868E3
:1009DC002A462946C0F30220FFF77AFF0001C0B275
:1009EC001D4B83F8250320225A604FF46123099391
:1009FC000A950B950C950C230D930E950F9505F1FF
:100A0C00804505F588353146284600F0CFFA2B692C
:100A1C0023F490432B616B6923F02A036B61EB6821
:100A2C0043F40053EB600D4BA3640D4BE364636C18
:100A3C006FF30F0343F400536364236C43F0080318
:100A4C00236410B070BD00BF0038024000000240AB
:100A5C000064024000ED00E000E100E00410014001
:100A6C002400002030B591B009AD002409946C60CD
:100A7C00AC60EC602C616C61AC6103A903944C60BC
:100A8C008C60CC600C614C612C4B1A6C42F4802253
:100A9C001A641A6C02F480220292029A1A6B42F0C7
:100AAC0002021A631B6B03F002030193019B4FF4C8
:100ABC0040630393022304930323059307230893B2
:100ACC001F4800F03CF91F4BD86822462146C0F362
:100ADC000220FFF7FDFE0001C0B21B4B83F8270379
:100AEC0080225A604FF4E13309930A940B940C94CE
:100AFC000C230D930E940F94144C2946204600F0B1
:100B0C0055FA236923F490432361636923F02A0384
:100B1C006361E36843F40053E3604FF0402202F654
:100B2C000C0353E8003F43F0200302F60C0242E8AA
:100B3C0000310029F1D111B030BD00BF00380240A6
:100B4C000004024000ED00E000E100E0004800403D
:100B5C00FEE7FEE7FEE7FEE7FEE7704770477047EB
:100B6C00704700000D4B5B6813F4006F07D00B4B04
:100B7C004FF40062DA60A3F5A83331225A60074BB8
:100B8C005B6813F4806F07D0044B4FF48062DA601B
:100B9C00A3F5A83331225A60704700BF00600240B1
:100BAC007047000008B5074B1B6813F0200F00D1ED
:100BBC0008BD044B6FF020021A605868C0B2FFF7F2
:100BCC00E3FCF5E7004800407047000008B50D4B0A
:100BDC001B6813F4801F06D00A4B4FF480129A60E6
:100BEC00094B1B7803B108BDFFF70AFC064B012229
:100BFC001A70064B1B6813F0400FFAD0034B3122CE
:100C0C005A60F0E700640240200000200010014010
:100C1C0010B4846891FAA1F3A3B1B3FA83F35B0027
:100C2C004FF0030C0CFA03F324EA030391FAA1F13D
:100C3C0051B1B1FA81F149008A40134383605DF8E8
:100C4C00044B70472023EAE72021F4E710B4C46872
:100C5C0091FAA1F3A3B1B3FA83F35B004FF0030C49
:100C6C000CFA03F324EA030391FAA1F151B1B1FA9E
:100C7C0081F149008A401343C3605DF8044B70470F
:100C8C002023EAE72021F4E710B4046A91FAA1F3D7
:100C9C00A3B1B3FA83F39B004FF00F0C0CFA03F3E0
:100CAC0024EA030391FAA1F151B1B1FA81F189005F
:100CBC008A40134303625DF8044B70472023EAE734
:100CCC002021F4E710B4446A090A91FAA1F3A3B104
:100CDC00B3FA83F39B004FF00F0C0CFA03F324EAE6
:100CEC00030491FAA1F151B1B1FA81F189008A4062
:100CFC00144344625DF8044B70472023EAE720213B
:100D0C00F4E710B4046891FAA1F3A3B1B3FA83F336
:100D1C005B004FF0030C0CFA03F324EA030391FA83
:100D2C00A1F151B1B1FA81F149008A40134303603A
:100D3C005DF8044B70472023EAE72021F4E7F8B56F
:100D4C0007460E460D6895FAA5F515B1B5FA85F569
:100D5C001AE0202518E0B26821463846FFF758FF04
:100D6C00F2687B6823EA040304FB02F213437B6002
:100D7C0016E0726921463846FFF7A4FF72682146D7
:100D8C003846FFF7BEFF0135346834FA05F21DD042
:100D9C000122AA401440F6D07368013B012BDAD92A
:100DAC00326921463846FFF751FF7368022BE5D1B3
:100DBC0094FAA4F3002BDCD0B3FA83F3072BD8D826
:100DCC00726921463846FFF75FFFD7E70020F8BD70
:100DDC00034B9B68C3F30313024AD35CD8407047A0
:100DEC00003802403C150008034B9B68C3F3822378
:100DFC00024AD35CD84070470038024034150008D2
:100E0C00034B9B68C3F34233024AD35CD840704710
:100E1C0000380240341500080F4B5B6803F4800364
:100E2C0023B90E4B082803D0002070470C4BF9E770
:100E3C00094A516801F03F01B3FBF1F05368C3F369
:100E4C00881303FB00F05368C3F3014301335B00C9
:100E5C00B0FBF3F0704700BF003802400024F400F0
:100E6C0000127A0008B5084B9B6803F00C03042BA6
:100E7C0005D0082B05D10820FFF7CEFF08BD03488D
:100E8C00FCE70348FAE700BF0038024000127A0082
:100E9C000024F40010B50446FFF7E4FF2060FFF7D0
:100EAC0097FF6060FFF7A0FFA0606068FFF7A8FFE6
:100EBC00E06010BD064BA3FB00239B09013B4FF0E8
:100ECC00E02253610023936105231361704700BF37
:100EDC00D34D6210014B1860704700BF000000201A
:100EEC0010B50446B2F5004F2FD04FF0000C481847
:100EFC004CEB0C0C40184CF1000C4FEACC0C4CEAAF
:100F0C00507CC00040184FEA83024FEA93734CF1B7
:100F1C000001FFF745F92449A1FB00235B091A01E5
:100F2C0092B24FF0640C0CFB13031B013233A1FB88
:100F3C000313C3F34F1303F0F0010A4492B203F00E
:100F4C000F0313449BB2A36010BD4FF0000C481864
:100F5C004CEB0C02401842F10002D20042EA5072F3
:100F6C00C000401842F10001DA184CEB0C03FFF7FB
:100F7C0017F90D49A1FB00235B091A0192B24FF03E
:100F8C00640C0CFB1303DB003233A1FB0313C3F320
:100F9C004F13590001F4F8710A4492B203F007039D
:100FAC0013449BB2A360CFE71F85EB51C36813F4C6
:100FBC00005F01D00120704730B585B004460D4666
:100FCC00C36823F4164323F00C034A68C9680A4328
:100FDC0029690A43A9690A431343C360AB680269D0
:100FEC0022F44052134303616B69426922F440724C
:100FFC00134343616846FFF74DFF1B4B9C4216D0D1
:10100C001A4B9C4219D01A4B9C4218D0194B9C423B
:10101C0017D0194B9C4216D0184B9C4215D0184B2C
:10102C009C4214D0174B9C4213D001201AE0039918
:10103C00B9B12B687BB9012014E00299F8E7029949
:10104C00F6E70399F4E70299F2E70299F0E70299BF
:10105C00EEE70299ECE7AA692046FFF741FF002072
:10106C0000E0012005B030BD0010014000440040FC
:10107C000048004000140140004C0040005000406B
:10108C0000780040007C0040034AD2F8883043F4DA
:10109C007003C2F88830704700ED00E00368304AF6
:1010AC00904212D0B0F1804F0FD0A2F57C4290420A
:1010BC000BD002F58062904207D002F5806290421C
:1010CC0003D002F57842904203D123F070034A68B2
:1010DC001343234A90422AD0B0F1804F27D0A2F577
:1010EC007C42904223D002F5806290421FD002F5E0
:1010FC00806290421BD002F57842904217D002F5E4
:10110C007052904213D002F5806290420FD002F5DB
:10111C00806290420BD0A2F59832904207D002F533
:10112C008062904203D002F58062904203D123F496
:10113C004073CA68134303608B68C3620B88836275
:10114C00074B984203D003F58063984201D10B6999
:10115C000363436943F0010343610020704700BF00
:10116C0000000140DFF834D0FFF78EFF0C480D492A
:10117C000D4A002302E0D458C4500433C4188C42E6
:10118C00F9D30A4A0A4C002301E013600432A2424C
:10119C00FBD300F011F8FFF789F97047000003202A
:1011AC0000000020040000205C1500080400002052
:1011BC0024200020FEE7000070B50D4B0D4D5B1B8D
:1011CC009C100026A64209D100F096F90A4D0B4B53
:1011DC005B1B9C100026A64205D170BD55F8043B44
:1011EC0098470136EEE755F8043B98470136F2E78D
:1011FC00541500085415000854150008581500081B
:10120C002DE9F047089D0F4604468C46002B48D12B
:10121C008A42164661D9B2FA82F34BB1C3F120026D
:10122C0001FA03FC20FA02F29E4042EA0C0C9C40AC
:10123C004FEA164EB7B2BCFBFEF1220C0EFB11CCE2
:10124C0042EA0C4201FB07F0904209D9B21801F1B5
:10125C00FF3C80F0EE80904240F2EB800239324449
:10126C00121AA4B2B2FBFEF00EFB102244EA0244A6
:10127C0000FB07F7A74209D9341900F1FF3280F0BF
:10128C00DA80A74240F2D7803444023840EA014069
:10129C00E41B00211DB1DC400023C5E90043BDE87F
:1012AC00F0878B4206D90DB1C5E900010021084633
:1012BC00BDE8F087B3FA83F1002948D1BB4202D3D1
:1012CC00824200F20781841A67EB030201209446E4
:1012DC00002DE4D0C5E9004CE1E7002A00F0928033
:1012EC00B2FA82F3002B40F0A8808A1A4FEA164E0D
:1012FC001FFA86FC0121200CB2FBFEF70EFB172215
:10130C0040EA02420CFB07F0904207D9B21807F1F1
:10131C00FF3802D2904200F2E2804746121AA4B281
:10132C00B2FBFEF00EFB102244EA02440CFB00FC64
:10133C00A44507D9341900F1FF3202D2A44500F2BA
:10134C00CB801046A4EB0C0440EA0740A2E7C1F1A5
:10135C0020068B4022FA06FC4CEA030C07FA01F437
:10136C0020FA06F3F7404FEA1C49234300FA01F830
:10137C001FFA8CFEB7FBF9F01C0C09FB107744EA42
:10138C00074400FB0EF7A74202FA01F20AD91CEB44
:10139C00040400F1FF3A80F09B80A74240F2988051
:1013AC0002386444E41B9FB2B4FBF9F309FB134409
:1013BC0047EA044403FB0EFEA64509D91CEB0404C2
:1013CC0003F1FF3780F08280A6457FD9023B64444D
:1013DC0043EA0040A4EB0E04A0FB02E7BC427346B8
:1013EC00B94663D360D05DB1B8EB030264EB09047A
:1013FC0004FA06F622FA01F31E43CC40C5E9006458
:10140C0000214CE76208480842EAC1710B0C43EA20
:10141C0000438AB242EA0342B3FBF6F1E407B44656
:10142C003746B6461F23B0FBF6F0D21B41EA00410B
:10143C0061E7614614E7104628E7C3F1200120FA62
:10144C0001F29E4027FA01F19F403A434FEA164EB3
:10145C001FFA86FCB1FBFEF70EFB1710110C41EACC
:10146C00004107FB0CF8884504FA03F43AD97118CB
:10147C0007F1FF3001D288451FD8A1EB0801B1FB61
:10148C00FEF808FB0CF70EFB181192B242EA01426F
:10149C00BA422FD2B21808F1FF31C6D2BA42C4D226
:1014AC00A8F102013244C0E7F0459CD2BEEB020326
:1014BC0067EB0C070138B94695E7A6EB08084144E1
:1014CC00B81EB1FBFEF808FB0CF7DCE73B467FE7E8
:1014DC00504667E70846FBE63444023832E7023FE1
:1014EC0032441BE7A1EB08013846B1FBFEF808FBC0
:1014FC000CF7C8E7414698E7F8B500BFF8BC08BC44
:10150C009E467047F8B500BFF8BC08BC9E467047B5
:10151C00706F6E6700000000706C6179696E670017
:10152C0073746F70706564000000000001020304A6
:10153C000000000000000000010203040607080977
:08154C00C0FCFF7F010000005C
:041554004902000840
:041558002102000864
:04155C000024F40073
:04000005080011716D
:00000001FF
